{
  "_format": "hh-sol-artifact-1",
  "contractName": "So",
  "sourceName": "contracts/So.sol",
  "abi": [
    {
      "inputs": [],
      "stateMutability": "nonpayable",
      "type": "constructor"
    },
    {
      "anonymous": false,
      "inputs": [
        {
          "indexed": true,
          "internalType": "address",
          "name": "owner",
          "type": "address"
        },
        {
          "indexed": true,
          "internalType": "address",
          "name": "approved",
          "type": "address"
        },
        {
          "indexed": true,
          "internalType": "uint256",
          "name": "tokenId",
          "type": "uint256"
        }
      ],
      "name": "Approval",
      "type": "event"
    },
    {
      "anonymous": false,
      "inputs": [
        {
          "indexed": true,
          "internalType": "address",
          "name": "owner",
          "type": "address"
        },
        {
          "indexed": true,
          "internalType": "address",
          "name": "operator",
          "type": "address"
        },
        {
          "indexed": false,
          "internalType": "bool",
          "name": "approved",
          "type": "bool"
        }
      ],
      "name": "ApprovalForAll",
      "type": "event"
    },
    {
      "anonymous": false,
      "inputs": [
        {
          "indexed": true,
          "internalType": "address",
          "name": "previousOwner",
          "type": "address"
        },
        {
          "indexed": true,
          "internalType": "address",
          "name": "newOwner",
          "type": "address"
        }
      ],
      "name": "OwnershipTransferred",
      "type": "event"
    },
    {
      "anonymous": false,
      "inputs": [
        {
          "indexed": false,
          "internalType": "uint256",
          "name": "tokenId",
          "type": "uint256"
        },
        {
          "indexed": false,
          "internalType": "address",
          "name": "owner",
          "type": "address"
        }
      ],
      "name": "SoMinted",
      "type": "event"
    },
    {
      "anonymous": false,
      "inputs": [
        {
          "indexed": true,
          "internalType": "address",
          "name": "from",
          "type": "address"
        },
        {
          "indexed": true,
          "internalType": "address",
          "name": "to",
          "type": "address"
        },
        {
          "indexed": true,
          "internalType": "uint256",
          "name": "tokenId",
          "type": "uint256"
        }
      ],
      "name": "Transfer",
      "type": "event"
    },
    {
      "inputs": [],
      "name": "MAX_TOKENS",
      "outputs": [
        {
          "internalType": "uint256",
          "name": "",
          "type": "uint256"
        }
      ],
      "stateMutability": "view",
      "type": "function"
    },
    {
      "inputs": [
        {
          "internalType": "address[]",
          "name": "addresses",
          "type": "address[]"
        }
      ],
      "name": "addToPresaleList",
      "outputs": [],
      "stateMutability": "nonpayable",
      "type": "function"
    },
    {
      "inputs": [
        {
          "internalType": "address",
          "name": "to",
          "type": "address"
        },
        {
          "internalType": "uint256",
          "name": "tokenId",
          "type": "uint256"
        }
      ],
      "name": "approve",
      "outputs": [],
      "stateMutability": "nonpayable",
      "type": "function"
    },
    {
      "inputs": [
        {
          "internalType": "address",
          "name": "owner",
          "type": "address"
        }
      ],
      "name": "balanceOf",
      "outputs": [
        {
          "internalType": "uint256",
          "name": "",
          "type": "uint256"
        }
      ],
      "stateMutability": "view",
      "type": "function"
    },
    {
      "inputs": [],
      "name": "baseURI",
      "outputs": [
        {
          "internalType": "string",
          "name": "",
          "type": "string"
        }
      ],
      "stateMutability": "view",
      "type": "function"
    },
    {
      "inputs": [],
      "name": "devReserve",
      "outputs": [
        {
          "internalType": "uint256",
          "name": "",
          "type": "uint256"
        }
      ],
      "stateMutability": "view",
      "type": "function"
    },
    {
      "inputs": [
        {
          "internalType": "uint256",
          "name": "tokenId",
          "type": "uint256"
        }
      ],
      "name": "getApproved",
      "outputs": [
        {
          "internalType": "address",
          "name": "",
          "type": "address"
        }
      ],
      "stateMutability": "view",
      "type": "function"
    },
    {
      "inputs": [
        {
          "internalType": "address",
          "name": "owner",
          "type": "address"
        },
        {
          "internalType": "address",
          "name": "operator",
          "type": "address"
        }
      ],
      "name": "isApprovedForAll",
      "outputs": [
        {
          "internalType": "bool",
          "name": "",
          "type": "bool"
        }
      ],
      "stateMutability": "view",
      "type": "function"
    },
    {
      "inputs": [],
      "name": "isRevealed",
      "outputs": [
        {
          "internalType": "bool",
          "name": "",
          "type": "bool"
        }
      ],
      "stateMutability": "view",
      "type": "function"
    },
    {
      "inputs": [],
      "name": "maxTokenPurchase",
      "outputs": [
        {
          "internalType": "uint256",
          "name": "",
          "type": "uint256"
        }
      ],
      "stateMutability": "view",
      "type": "function"
    },
    {
      "inputs": [
        {
          "internalType": "uint256",
          "name": "numberOfTokens",
          "type": "uint256"
        }
      ],
      "name": "mintSo",
      "outputs": [],
      "stateMutability": "payable",
      "type": "function"
    },
    {
      "inputs": [],
      "name": "name",
      "outputs": [
        {
          "internalType": "string",
          "name": "",
          "type": "string"
        }
      ],
      "stateMutability": "view",
      "type": "function"
    },
    {
      "inputs": [
        {
          "internalType": "address",
          "name": "addr",
          "type": "address"
        }
      ],
      "name": "onPreSaleList",
      "outputs": [
        {
          "internalType": "bool",
          "name": "",
          "type": "bool"
        }
      ],
      "stateMutability": "view",
      "type": "function"
    },
    {
      "inputs": [],
      "name": "owner",
      "outputs": [
        {
          "internalType": "address",
          "name": "",
          "type": "address"
        }
      ],
      "stateMutability": "view",
      "type": "function"
    },
    {
      "inputs": [
        {
          "internalType": "uint256",
          "name": "tokenId",
          "type": "uint256"
        }
      ],
      "name": "ownerOf",
      "outputs": [
        {
          "internalType": "address",
          "name": "",
          "type": "address"
        }
      ],
      "stateMutability": "view",
      "type": "function"
    },
    {
      "inputs": [],
      "name": "presaleIsActive",
      "outputs": [
        {
          "internalType": "bool",
          "name": "",
          "type": "bool"
        }
      ],
      "stateMutability": "view",
      "type": "function"
    },
    {
      "inputs": [],
      "name": "presaleMaxMint",
      "outputs": [
        {
          "internalType": "uint256",
          "name": "",
          "type": "uint256"
        }
      ],
      "stateMutability": "view",
      "type": "function"
    },
    {
      "inputs": [
        {
          "internalType": "uint256",
          "name": "numberOfTokens",
          "type": "uint256"
        }
      ],
      "name": "presaleSo",
      "outputs": [],
      "stateMutability": "payable",
      "type": "function"
    },
    {
      "inputs": [
        {
          "internalType": "address[]",
          "name": "addresses",
          "type": "address[]"
        }
      ],
      "name": "removeFromPresaleList",
      "outputs": [],
      "stateMutability": "nonpayable",
      "type": "function"
    },
    {
      "inputs": [],
      "name": "renounceOwnership",
      "outputs": [],
      "stateMutability": "nonpayable",
      "type": "function"
    },
    {
      "inputs": [
        {
          "internalType": "address",
          "name": "_to",
          "type": "address"
        },
        {
          "internalType": "uint256",
          "name": "_reserveAmount",
          "type": "uint256"
        }
      ],
      "name": "reserveTokens",
      "outputs": [],
      "stateMutability": "nonpayable",
      "type": "function"
    },
    {
      "inputs": [],
      "name": "reveal",
      "outputs": [],
      "stateMutability": "nonpayable",
      "type": "function"
    },
    {
      "inputs": [
        {
          "internalType": "address",
          "name": "from",
          "type": "address"
        },
        {
          "internalType": "address",
          "name": "to",
          "type": "address"
        },
        {
          "internalType": "uint256",
          "name": "tokenId",
          "type": "uint256"
        }
      ],
      "name": "safeTransferFrom",
      "outputs": [],
      "stateMutability": "nonpayable",
      "type": "function"
    },
    {
      "inputs": [
        {
          "internalType": "address",
          "name": "from",
          "type": "address"
        },
        {
          "internalType": "address",
          "name": "to",
          "type": "address"
        },
        {
          "internalType": "uint256",
          "name": "tokenId",
          "type": "uint256"
        },
        {
          "internalType": "bytes",
          "name": "data",
          "type": "bytes"
        }
      ],
      "name": "safeTransferFrom",
      "outputs": [],
      "stateMutability": "nonpayable",
      "type": "function"
    },
    {
      "inputs": [],
      "name": "saleIsActive",
      "outputs": [
        {
          "internalType": "bool",
          "name": "",
          "type": "bool"
        }
      ],
      "stateMutability": "view",
      "type": "function"
    },
    {
      "inputs": [
        {
          "internalType": "address",
          "name": "operator",
          "type": "address"
        },
        {
          "internalType": "bool",
          "name": "approved",
          "type": "bool"
        }
      ],
      "name": "setApprovalForAll",
      "outputs": [],
      "stateMutability": "nonpayable",
      "type": "function"
    },
    {
      "inputs": [
        {
          "internalType": "string",
          "name": "_newBaseURI",
          "type": "string"
        }
      ],
      "name": "setBaseURI",
      "outputs": [],
      "stateMutability": "nonpayable",
      "type": "function"
    },
    {
      "inputs": [
        {
          "internalType": "uint256",
          "name": "maxMint",
          "type": "uint256"
        }
      ],
      "name": "setPresaleMaxMint",
      "outputs": [],
      "stateMutability": "nonpayable",
      "type": "function"
    },
    {
      "inputs": [
        {
          "internalType": "bytes4",
          "name": "interfaceId",
          "type": "bytes4"
        }
      ],
      "name": "supportsInterface",
      "outputs": [
        {
          "internalType": "bool",
          "name": "",
          "type": "bool"
        }
      ],
      "stateMutability": "view",
      "type": "function"
    },
    {
      "inputs": [],
      "name": "symbol",
      "outputs": [
        {
          "internalType": "string",
          "name": "",
          "type": "string"
        }
      ],
      "stateMutability": "view",
      "type": "function"
    },
    {
      "inputs": [],
      "name": "togglePresaleState",
      "outputs": [],
      "stateMutability": "nonpayable",
      "type": "function"
    },
    {
      "inputs": [],
      "name": "toggleSaleState",
      "outputs": [],
      "stateMutability": "nonpayable",
      "type": "function"
    },
    {
      "inputs": [
        {
          "internalType": "uint256",
          "name": "index",
          "type": "uint256"
        }
      ],
      "name": "tokenByIndex",
      "outputs": [
        {
          "internalType": "uint256",
          "name": "",
          "type": "uint256"
        }
      ],
      "stateMutability": "view",
      "type": "function"
    },
    {
      "inputs": [
        {
          "internalType": "address",
          "name": "owner",
          "type": "address"
        },
        {
          "internalType": "uint256",
          "name": "index",
          "type": "uint256"
        }
      ],
      "name": "tokenOfOwnerByIndex",
      "outputs": [
        {
          "internalType": "uint256",
          "name": "",
          "type": "uint256"
        }
      ],
      "stateMutability": "view",
      "type": "function"
    },
    {
      "inputs": [],
      "name": "tokenPrice",
      "outputs": [
        {
          "internalType": "uint256",
          "name": "",
          "type": "uint256"
        }
      ],
      "stateMutability": "view",
      "type": "function"
    },
    {
      "inputs": [
        {
          "internalType": "uint256",
          "name": "tokenId",
          "type": "uint256"
        }
      ],
      "name": "tokenURI",
      "outputs": [
        {
          "internalType": "string",
          "name": "",
          "type": "string"
        }
      ],
      "stateMutability": "view",
      "type": "function"
    },
    {
      "inputs": [
        {
          "internalType": "address",
          "name": "_owner",
          "type": "address"
        }
      ],
      "name": "tokensOfOwner",
      "outputs": [
        {
          "internalType": "uint256[]",
          "name": "",
          "type": "uint256[]"
        }
      ],
      "stateMutability": "view",
      "type": "function"
    },
    {
      "inputs": [],
      "name": "totalSupply",
      "outputs": [
        {
          "internalType": "uint256",
          "name": "",
          "type": "uint256"
        }
      ],
      "stateMutability": "view",
      "type": "function"
    },
    {
      "inputs": [
        {
          "internalType": "address",
          "name": "from",
          "type": "address"
        },
        {
          "internalType": "address",
          "name": "to",
          "type": "address"
        },
        {
          "internalType": "uint256",
          "name": "tokenId",
          "type": "uint256"
        }
      ],
      "name": "transferFrom",
      "outputs": [],
      "stateMutability": "nonpayable",
      "type": "function"
    },
    {
      "inputs": [
        {
          "internalType": "address",
          "name": "newOwner",
          "type": "address"
        }
      ],
      "name": "transferOwnership",
      "outputs": [],
      "stateMutability": "nonpayable",
      "type": "function"
    },
    {
      "inputs": [],
      "name": "withdraw",
      "outputs": [],
      "stateMutability": "payable",
      "type": "function"
    }
  ],
  "bytecode": "0x60e0604052603660808181529062002c1f60a03980516200002991600b9160209091019062000130565b50600c805462ffffff1916620100001790556002600f5560406010553480156200005257600080fd5b5060405180604001604052806002815260200161536f60f01b81525060405180604001604052806002815260200161534f60f01b8152508160009080519060200190620000a192919062000130565b508051620000b790600190602084019062000130565b505050620000d4620000ce620000da60201b60201c565b620000de565b62000213565b3390565b600680546001600160a01b038381166001600160a01b0319831681179093556040519116919082907f8be0079c531659141344cd1fd0a4f28419497f9722a3daafe3b4186f6b6457e090600090a35050565b8280546200013e90620001d6565b90600052602060002090601f016020900481019282620001625760008555620001ad565b82601f106200017d57805160ff1916838001178555620001ad565b82800160010185558215620001ad579182015b82811115620001ad57825182559160200191906001019062000190565b50620001bb929150620001bf565b5090565b5b80821115620001bb5760008155600101620001c0565b600181811c90821680620001eb57607f821691505b602082108114156200020d57634e487b7160e01b600052602260045260246000fd5b50919050565b6129fc80620002236000396000f3fe6080604052600436106102465760003560e01c806378cf19e911610139578063b88d4fde116100b6578063e985e9c51161007a578063e985e9c51461067f578063eb8d2444146106c8578063f285e69e146106e2578063f2fde38b146106f7578063f47c84c514610717578063fcd2a4271461072d57600080fd5b8063b88d4fde146105f7578063c87b56dd14610617578063c9c9792e14610637578063daaeec861461064a578063df4305d21461065f57600080fd5b806395d89b41116100fd57806395d89b411461057a578063a22cb4651461058f578063a475b5dd146105af578063aff7b4d1146105c4578063b179e060146105d757600080fd5b806378cf19e9146104de5780637ff9b596146104fe5780638462151c146105195780638da5cb5b14610546578063946ef42a1461056457600080fd5b80633ccfd60b116101c75780636352211e1161018b5780636352211e146104545780636c0360eb1461047457806370a0823114610489578063715018a6146104a95780637204a3c9146104be57600080fd5b80633ccfd60b146103cc57806342842e0e146103d45780634f6ccce7146103f457806354214f691461041457806355f804b31461043457600080fd5b806311576b791161020e57806311576b791461031f57806318160ddd1461035857806323b872dd1461036d5780632f745c591461038d57806330f72cd4146103ad57600080fd5b806301ffc9a71461024b57806306fdde0314610280578063081812fc146102a2578063095ea7b3146102da57806309aa3dcf146102fc575b600080fd5b34801561025757600080fd5b5061026b610266366004612606565b610743565b60405190151581526020015b60405180910390f35b34801561028c57600080fd5b50610295610754565b6040516102779190612788565b3480156102ae57600080fd5b506102c26102bd366004612684565b6107e6565b6040516001600160a01b039091168152602001610277565b3480156102e657600080fd5b506102fa6102f536600461256d565b61080d565b005b34801561030857600080fd5b50610311600581565b604051908152602001610277565b34801561032b57600080fd5b5061026b61033a366004612433565b6001600160a01b03166000908152600d602052604090205460ff1690565b34801561036457600080fd5b50600954610311565b34801561037957600080fd5b506102fa61038836600461247f565b610928565b34801561039957600080fd5b506103116103a836600461256d565b610959565b3480156103b957600080fd5b50600c5461026b90610100900460ff1681565b6102fa6109ef565b3480156103e057600080fd5b506102fa6103ef36600461247f565b610a6b565b34801561040057600080fd5b5061031161040f366004612684565b610a86565b34801561042057600080fd5b50600c5461026b9062010000900460ff1681565b34801561044057600080fd5b506102fa61044f36600461263e565b610b27565b34801561046057600080fd5b506102c261046f366004612684565b610b46565b34801561048057600080fd5b50610295610ba6565b34801561049557600080fd5b506103116104a4366004612433565b610c34565b3480156104b557600080fd5b506102fa610cba565b3480156104ca57600080fd5b506102fa6104d9366004612596565b610cce565b3480156104ea57600080fd5b506102fa6104f936600461256d565b610de4565b34801561050a57600080fd5b50610311662386f26fc1000081565b34801561052557600080fd5b50610539610534366004612433565b610e94565b6040516102779190612744565b34801561055257600080fd5b506006546001600160a01b03166102c2565b34801561057057600080fd5b50610311600f5481565b34801561058657600080fd5b50610295610f6f565b34801561059b57600080fd5b506102fa6105aa366004612533565b610f7e565b3480156105bb57600080fd5b506102fa610f89565b6102fa6105d2366004612684565b610fa4565b3480156105e357600080fd5b506102fa6105f2366004612596565b611170565b34801561060357600080fd5b506102fa6106123660046124ba565b611286565b34801561062357600080fd5b50610295610632366004612684565b6112be565b6102fa610645366004612684565b6113ca565b34801561065657600080fd5b506102fa6116bc565b34801561066b57600080fd5b506102fa61067a366004612684565b6116d8565b34801561068b57600080fd5b5061026b61069a36600461244d565b6001600160a01b03918216600090815260056020908152604080832093909416825291909152205460ff1690565b3480156106d457600080fd5b50600c5461026b9060ff1681565b3480156106ee57600080fd5b506102fa6116e5565b34801561070357600080fd5b506102fa610712366004612433565b61170a565b34801561072357600080fd5b506103116103e881565b34801561073957600080fd5b5061031160105481565b600061074e82611780565b92915050565b606060008054610763906128c9565b80601f016020809104026020016040519081016040528092919081815260200182805461078f906128c9565b80156107dc5780601f106107b1576101008083540402835291602001916107dc565b820191906000526020600020905b8154815290600101906020018083116107bf57829003601f168201915b5050505050905090565b60006107f1826117a5565b506000908152600460205260409020546001600160a01b031690565b600061081882610b46565b9050806001600160a01b0316836001600160a01b0316141561088b5760405162461bcd60e51b815260206004820152602160248201527f4552433732313a20617070726f76616c20746f2063757272656e74206f776e656044820152603960f91b60648201526084015b60405180910390fd5b336001600160a01b03821614806108a757506108a7813361069a565b6109195760405162461bcd60e51b815260206004820152603e60248201527f4552433732313a20617070726f76652063616c6c6572206973206e6f7420746f60448201527f6b656e206f776e6572206e6f7220617070726f76656420666f7220616c6c00006064820152608401610882565b6109238383611804565b505050565b6109323382611872565b61094e5760405162461bcd60e51b8152600401610882906127ed565b6109238383836118f1565b600061096483610c34565b82106109c65760405162461bcd60e51b815260206004820152602b60248201527f455243373231456e756d657261626c653a206f776e657220696e646578206f7560448201526a74206f6620626f756e647360a81b6064820152608401610882565b506001600160a01b03919091166000908152600760209081526040808320938352929052205490565b6109f7611a98565b6000610a0b6006546001600160a01b031690565b6001600160a01b03164760405160006040518083038185875af1925050503d8060008114610a55576040519150601f19603f3d011682016040523d82523d6000602084013e610a5a565b606091505b5050905080610a6857600080fd5b50565b61092383838360405180602001604052806000815250611286565b6000610a9160095490565b8210610af45760405162461bcd60e51b815260206004820152602c60248201527f455243373231456e756d657261626c653a20676c6f62616c20696e646578206f60448201526b7574206f6620626f756e647360a01b6064820152608401610882565b60098281548110610b1557634e487b7160e01b600052603260045260246000fd5b90600052602060002001549050919050565b610b2f611a98565b8051610b4290600b906020840190612308565b5050565b6000818152600260205260408120546001600160a01b03168061074e5760405162461bcd60e51b8152602060048201526018602482015277115490cdcc8c4e881a5b9d985b1a59081d1bdad95b88125160421b6044820152606401610882565b600b8054610bb3906128c9565b80601f0160208091040260200160405190810160405280929190818152602001828054610bdf906128c9565b8015610c2c5780601f10610c0157610100808354040283529160200191610c2c565b820191906000526020600020905b815481529060010190602001808311610c0f57829003601f168201915b505050505081565b60006001600160a01b038216610c9e5760405162461bcd60e51b815260206004820152602960248201527f4552433732313a2061646472657373207a65726f206973206e6f7420612076616044820152683634b21037bbb732b960b91b6064820152608401610882565b506001600160a01b031660009081526003602052604090205490565b610cc2611a98565b610ccc6000611af2565b565b610cd6611a98565b60005b81811015610923576000838383818110610d0357634e487b7160e01b600052603260045260246000fd5b9050602002016020810190610d189190612433565b6001600160a01b03161415610d6f5760405162461bcd60e51b815260206004820152601a60248201527f43616e27742061646420746865206e756c6c20616464726573730000000000006044820152606401610882565b6001600d6000858585818110610d9557634e487b7160e01b600052603260045260246000fd5b9050602002016020810190610daa9190612433565b6001600160a01b031681526020810191909152604001600020805460ff191691151591909117905580610ddc816128fe565b915050610cd9565b610dec611a98565b600081118015610dfe57506010548111155b610e4a5760405162461bcd60e51b815260206004820181905260248201527f4e6f7420656e6f7567682072657365727665206c65667420666f72207465616d6044820152606401610882565b60005b81811015610e7f576000610e6060095490565b9050610e6c8482611b44565b5080610e77816128fe565b915050610e4d565b50601054610e8d9082611b5e565b6010555050565b60606000610ea183610c34565b905080610ec25760408051600080825260208201909252905b509392505050565b60008167ffffffffffffffff811115610eeb57634e487b7160e01b600052604160045260246000fd5b604051908082528060200260200182016040528015610f14578160200160208202803683370190505b50905060005b82811015610eba57610f2c8582610959565b828281518110610f4c57634e487b7160e01b600052603260045260246000fd5b602090810291909101015280610f61816128fe565b915050610f1a565b50919050565b606060018054610763906128c9565b610b42338383611b6a565b610f91611a98565b600c805462ff0000191662010000179055565b600081118015610fb5575060058111155b6110145760405162461bcd60e51b815260206004820152602a60248201527f43616e206f6e6c79206d696e74206f6e65206f72206d6f726520746f6b656e7360448201526920617420612074696d6560b01b6064820152608401610882565b6103e861102a8261102460095490565b90611c39565b111561108b5760405162461bcd60e51b815260206004820152602a60248201527f507572636861736520776f756c6420657863656564206d617820737570706c79604482015269206f6620746f6b656e7360b01b6064820152608401610882565b61109c662386f26fc1000082611c45565b3410156110eb5760405162461bcd60e51b815260206004820152601f60248201527f45746865722076616c75652073656e74206973206e6f7420636f7272656374006044820152606401610882565b60005b81811015610b42576000611106600161102460095490565b90506103e861111460095490565b101561115d576111243382611b44565b604080518281523360208201527f569263f9f17472e40a5c2a42c52392f8475177e6c2f227effa596a64c8a1c984910160405180910390a15b5080611168816128fe565b9150506110ee565b611178611a98565b60005b818110156109235760008383838181106111a557634e487b7160e01b600052603260045260246000fd5b90506020020160208101906111ba9190612433565b6001600160a01b031614156112115760405162461bcd60e51b815260206004820152601a60248201527f43616e27742061646420746865206e756c6c20616464726573730000000000006044820152606401610882565b6000600d600085858581811061123757634e487b7160e01b600052603260045260246000fd5b905060200201602081019061124c9190612433565b6001600160a01b031681526020810191909152604001600020805460ff19169115159190911790558061127e816128fe565b91505061117b565b6112903383611872565b6112ac5760405162461bcd60e51b8152600401610882906127ed565b6112b884848484611c51565b50505050565b6000818152600260205260409020546060906001600160a01b031661133d5760405162461bcd60e51b815260206004820152602f60248201527f4552433732314d657461646174613a2055524920717565727920666f72206e6f60448201526e3732bc34b9ba32b73a103a37b5b2b760891b6064820152608401610882565b6000611347611c84565b600c5490915062010000900460ff1661137a57604051806080016040528060418152602001612986604191399392505050565b600081511161139857604051806020016040528060008152506113c3565b806113a284611c93565b6040516020016113b39291906126c8565b6040516020818303038152906040525b9392505050565b600c54610100900460ff166114195760405162461bcd60e51b815260206004820152601560248201527450726573616c65206973206e6f742061637469766560581b6044820152606401610882565b336000908152600d602052604090205460ff166114785760405162461bcd60e51b815260206004820152601f60248201527f596f7520617265206e6f74206f6e207468652050726573616c65204c697374006044820152606401610882565b6103e86114888261102460095490565b11156114e85760405162461bcd60e51b815260206004820152602960248201527f507572636861736520776f756c6420657863656564206d617820737570706c796044820152681037b3103a37b5b2b760b91b6064820152608401610882565b6000811180156114fa5750600f548111155b6115465760405162461bcd60e51b815260206004820181905260248201527f43616e6e6f742070757263686173652074686973206d616e7920746f6b656e736044820152606401610882565b600f54336000908152600e60205260409020546115639083611c39565b11156115b15760405162461bcd60e51b815260206004820152601c60248201527f50757263686173652065786365656473206d617820616c6c6f776564000000006044820152606401610882565b6115c2662386f26fc1000082611c45565b3410156116115760405162461bcd60e51b815260206004820152601f60248201527f45746865722076616c75652073656e74206973206e6f7420636f7272656374006044820152606401610882565b60005b81811015610b4257600061162c600161102460095490565b90506103e861163a60095490565b10156116a957336000908152600e6020526040812080546001929061166090849061283b565b9091555061167090503382611b44565b604080518281523360208201527f569263f9f17472e40a5c2a42c52392f8475177e6c2f227effa596a64c8a1c984910160405180910390a15b50806116b4816128fe565b915050611614565b6116c4611a98565b600c805460ff19811660ff90911615179055565b6116e0611a98565b600f55565b6116ed611a98565b600c805461ff001981166101009182900460ff1615909102179055565b611712611a98565b6001600160a01b0381166117775760405162461bcd60e51b815260206004820152602660248201527f4f776e61626c653a206e6577206f776e657220697320746865207a65726f206160448201526564647265737360d01b6064820152608401610882565b610a6881611af2565b60006001600160e01b0319821663780e9d6360e01b148061074e575061074e82611dad565b6000818152600260205260409020546001600160a01b0316610a685760405162461bcd60e51b8152602060048201526018602482015277115490cdcc8c4e881a5b9d985b1a59081d1bdad95b88125160421b6044820152606401610882565b600081815260046020526040902080546001600160a01b0319166001600160a01b038416908117909155819061183982610b46565b6001600160a01b03167f8c5be1e5ebec7d5bd14f71427d1e84f3dd0314c0f7b2291e5b200ac8c7c3b92560405160405180910390a45050565b60008061187e83610b46565b9050806001600160a01b0316846001600160a01b031614806118c557506001600160a01b0380821660009081526005602090815260408083209388168352929052205460ff165b806118e95750836001600160a01b03166118de846107e6565b6001600160a01b0316145b949350505050565b826001600160a01b031661190482610b46565b6001600160a01b0316146119685760405162461bcd60e51b815260206004820152602560248201527f4552433732313a207472616e736665722066726f6d20696e636f72726563742060448201526437bbb732b960d91b6064820152608401610882565b6001600160a01b0382166119ca5760405162461bcd60e51b8152602060048201526024808201527f4552433732313a207472616e7366657220746f20746865207a65726f206164646044820152637265737360e01b6064820152608401610882565b6119d5838383611dfd565b6119e0600082611804565b6001600160a01b0383166000908152600360205260408120805460019290611a09908490612886565b90915550506001600160a01b0382166000908152600360205260408120805460019290611a3790849061283b565b909155505060008181526002602052604080822080546001600160a01b0319166001600160a01b0386811691821790925591518493918716917fddf252ad1be2c89b69c2b068fc378daa952ba7f163c4a11628f55a4df523b3ef91a4505050565b6006546001600160a01b03163314610ccc5760405162461bcd60e51b815260206004820181905260248201527f4f776e61626c653a2063616c6c6572206973206e6f7420746865206f776e65726044820152606401610882565b600680546001600160a01b038381166001600160a01b0319831681179093556040519116919082907f8be0079c531659141344cd1fd0a4f28419497f9722a3daafe3b4186f6b6457e090600090a35050565b610b42828260405180602001604052806000815250611e08565b60006113c38284612886565b816001600160a01b0316836001600160a01b03161415611bcc5760405162461bcd60e51b815260206004820152601960248201527f4552433732313a20617070726f766520746f2063616c6c6572000000000000006044820152606401610882565b6001600160a01b03838116600081815260056020908152604080832094871680845294825291829020805460ff191686151590811790915591519182527f17307eab39ab6107e8899845ad3d59bd9653f200f220920489ca2b5937696c31910160405180910390a3505050565b60006113c3828461283b565b60006113c38284612867565b611c5c8484846118f1565b611c6884848484611e3b565b6112b85760405162461bcd60e51b81526004016108829061279b565b6060600b8054610763906128c9565b606081611cb75750506040805180820190915260018152600360fc1b602082015290565b8160005b8115611ce15780611ccb816128fe565b9150611cda9050600a83612853565b9150611cbb565b60008167ffffffffffffffff811115611d0a57634e487b7160e01b600052604160045260246000fd5b6040519080825280601f01601f191660200182016040528015611d34576020820181803683370190505b5090505b84156118e957611d49600183612886565b9150611d56600a86612919565b611d6190603061283b565b60f81b818381518110611d8457634e487b7160e01b600052603260045260246000fd5b60200101906001600160f81b031916908160001a905350611da6600a86612853565b9450611d38565b60006001600160e01b031982166380ac58cd60e01b1480611dde57506001600160e01b03198216635b5e139f60e01b145b8061074e57506301ffc9a760e01b6001600160e01b031983161461074e565b610923838383611f48565b611e128383612000565b611e1f6000848484611e3b565b6109235760405162461bcd60e51b81526004016108829061279b565b60006001600160a01b0384163b15611f3d57604051630a85bd0160e11b81526001600160a01b0385169063150b7a0290611e7f903390899088908890600401612707565b602060405180830381600087803b158015611e9957600080fd5b505af1925050508015611ec9575060408051601f3d908101601f19168201909252611ec691810190612622565b60015b611f23573d808015611ef7576040519150601f19603f3d011682016040523d82523d6000602084013e611efc565b606091505b508051611f1b5760405162461bcd60e51b81526004016108829061279b565b805181602001fd5b6001600160e01b031916630a85bd0160e11b1490506118e9565b506001949350505050565b6001600160a01b038316611fa357611f9e81600980546000838152600a60205260408120829055600182018355919091527f6e1540171b6c0c960b71a7020d9f60077f6af931a8bbf590da0223dacf75c7af0155565b611fc6565b816001600160a01b0316836001600160a01b031614611fc657611fc6838261214e565b6001600160a01b038216611fdd57610923816121eb565b826001600160a01b0316826001600160a01b0316146109235761092382826122c4565b6001600160a01b0382166120565760405162461bcd60e51b815260206004820181905260248201527f4552433732313a206d696e7420746f20746865207a65726f20616464726573736044820152606401610882565b6000818152600260205260409020546001600160a01b0316156120bb5760405162461bcd60e51b815260206004820152601c60248201527f4552433732313a20746f6b656e20616c7265616479206d696e746564000000006044820152606401610882565b6120c760008383611dfd565b6001600160a01b03821660009081526003602052604081208054600192906120f090849061283b565b909155505060008181526002602052604080822080546001600160a01b0319166001600160a01b03861690811790915590518392907fddf252ad1be2c89b69c2b068fc378daa952ba7f163c4a11628f55a4df523b3ef908290a45050565b6000600161215b84610c34565b6121659190612886565b6000838152600860205260409020549091508082146121b8576001600160a01b03841660009081526007602090815260408083208584528252808320548484528184208190558352600890915290208190555b5060009182526008602090815260408084208490556001600160a01b039094168352600781528383209183525290812055565b6009546000906121fd90600190612886565b6000838152600a60205260408120546009805493945090928490811061223357634e487b7160e01b600052603260045260246000fd5b90600052602060002001549050806009838154811061226257634e487b7160e01b600052603260045260246000fd5b6000918252602080832090910192909255828152600a909152604080822084905585825281205560098054806122a857634e487b7160e01b600052603160045260246000fd5b6001900381819060005260206000200160009055905550505050565b60006122cf83610c34565b6001600160a01b039093166000908152600760209081526040808320868452825280832085905593825260089052919091209190915550565b828054612314906128c9565b90600052602060002090601f016020900481019282612336576000855561237c565b82601f1061234f57805160ff191683800117855561237c565b8280016001018555821561237c579182015b8281111561237c578251825591602001919060010190612361565b5061238892915061238c565b5090565b5b80821115612388576000815560010161238d565b600067ffffffffffffffff808411156123bc576123bc612959565b604051601f8501601f19908116603f011681019082821181831017156123e4576123e4612959565b816040528093508581528686860111156123fd57600080fd5b858560208301376000602087830101525050509392505050565b80356001600160a01b038116811461242e57600080fd5b919050565b600060208284031215612444578081fd5b6113c382612417565b6000806040838503121561245f578081fd5b61246883612417565b915061247660208401612417565b90509250929050565b600080600060608486031215612493578081fd5b61249c84612417565b92506124aa60208501612417565b9150604084013590509250925092565b600080600080608085870312156124cf578081fd5b6124d885612417565b93506124e660208601612417565b925060408501359150606085013567ffffffffffffffff811115612508578182fd5b8501601f81018713612518578182fd5b612527878235602084016123a1565b91505092959194509250565b60008060408385031215612545578182fd5b61254e83612417565b915060208301358015158114612562578182fd5b809150509250929050565b6000806040838503121561257f578182fd5b61258883612417565b946020939093013593505050565b600080602083850312156125a8578182fd5b823567ffffffffffffffff808211156125bf578384fd5b818501915085601f8301126125d2578384fd5b8135818111156125e0578485fd5b8660208260051b85010111156125f4578485fd5b60209290920196919550909350505050565b600060208284031215612617578081fd5b81356113c38161296f565b600060208284031215612633578081fd5b81516113c38161296f565b60006020828403121561264f578081fd5b813567ffffffffffffffff811115612665578182fd5b8201601f81018413612675578182fd5b6118e9848235602084016123a1565b600060208284031215612695578081fd5b5035919050565b600081518084526126b481602086016020860161289d565b601f01601f19169290920160200192915050565b600083516126da81846020880161289d565b8351908301906126ee81836020880161289d565b64173539b7b760d91b9101908152600501949350505050565b6001600160a01b038581168252841660208201526040810183905260806060820181905260009061273a9083018461269c565b9695505050505050565b6020808252825182820181905260009190848201906040850190845b8181101561277c57835183529284019291840191600101612760565b50909695505050505050565b6020815260006113c3602083018461269c565b60208082526032908201527f4552433732313a207472616e7366657220746f206e6f6e20455243373231526560408201527131b2b4bb32b91034b6b83632b6b2b73a32b960711b606082015260800190565b6020808252602e908201527f4552433732313a2063616c6c6572206973206e6f7420746f6b656e206f776e6560408201526d1c881b9bdc88185c1c1c9bdd995960921b606082015260800190565b6000821982111561284e5761284e61292d565b500190565b60008261286257612862612943565b500490565b60008160001904831182151516156128815761288161292d565b500290565b6000828210156128985761289861292d565b500390565b60005b838110156128b85781810151838201526020016128a0565b838111156112b85750506000910152565b600181811c908216806128dd57607f821691505b60208210811415610f6957634e487b7160e01b600052602260045260246000fd5b60006000198214156129125761291261292d565b5060010190565b60008261292857612928612943565b500690565b634e487b7160e01b600052601160045260246000fd5b634e487b7160e01b600052601260045260246000fd5b634e487b7160e01b600052604160045260246000fd5b6001600160e01b031981168114610a6857600080fdfe697066733a2f2f516d5947417033477a316d35556d466856345056525250594533484c31416d4377454b4650786e673439387666622f68696464656e2e6a736f6ea2646970667358221220aaae6e19869be17892b5fd61080e3fd13f51e786c627b7ff6072328f387770d964736f6c63430008040033697066733a2f2f516d665833786656434a5252506d68587970506d527035776d5158714d53584666373579324b504651414c7633372f",
  "linkReferences": {},
  "deployedLinkReferences": {}
}